{
  "_format": "hh-sol-artifact-1",
  "contractName": "WebMart",
  "sourceName": "contracts/WebMart.sol",
  "abi": [
    {
      "inputs": [
        {
          "internalType": "string",
          "name": "_name",
          "type": "string"
        },
        {
          "internalType": "string",
          "name": "_symbol",
          "type": "string"
        }
      ],
      "stateMutability": "nonpayable",
      "type": "constructor"
    },
    {
      "anonymous": false,
      "inputs": [
        {
          "indexed": true,
          "internalType": "address",
          "name": "owner",
          "type": "address"
        },
        {
          "indexed": true,
          "internalType": "address",
          "name": "approved",
          "type": "address"
        },
        {
          "indexed": true,
          "internalType": "uint256",
          "name": "tokenId",
          "type": "uint256"
        }
      ],
      "name": "Approval",
      "type": "event"
    },
    {
      "anonymous": false,
      "inputs": [
        {
          "indexed": true,
          "internalType": "address",
          "name": "owner",
          "type": "address"
        },
        {
          "indexed": true,
          "internalType": "address",
          "name": "operator",
          "type": "address"
        },
        {
          "indexed": false,
          "internalType": "bool",
          "name": "approved",
          "type": "bool"
        }
      ],
      "name": "ApprovalForAll",
      "type": "event"
    },
    {
      "anonymous": false,
      "inputs": [
        {
          "indexed": true,
          "internalType": "address",
          "name": "from",
          "type": "address"
        },
        {
          "indexed": true,
          "internalType": "address",
          "name": "to",
          "type": "address"
        },
        {
          "indexed": true,
          "internalType": "uint256",
          "name": "tokenId",
          "type": "uint256"
        }
      ],
      "name": "Transfer",
      "type": "event"
    },
    {
      "inputs": [
        {
          "internalType": "address",
          "name": "to",
          "type": "address"
        },
        {
          "internalType": "uint256",
          "name": "tokenId",
          "type": "uint256"
        }
      ],
      "name": "approve",
      "outputs": [],
      "stateMutability": "nonpayable",
      "type": "function"
    },
    {
      "inputs": [
        {
          "internalType": "address",
          "name": "owner",
          "type": "address"
        }
      ],
      "name": "balanceOf",
      "outputs": [
        {
          "internalType": "uint256",
          "name": "",
          "type": "uint256"
        }
      ],
      "stateMutability": "view",
      "type": "function"
    },
    {
      "inputs": [
        {
          "internalType": "uint256",
          "name": "tokenId",
          "type": "uint256"
        }
      ],
      "name": "getApproved",
      "outputs": [
        {
          "internalType": "address",
          "name": "",
          "type": "address"
        }
      ],
      "stateMutability": "view",
      "type": "function"
    },
    {
      "inputs": [],
      "name": "getBalance",
      "outputs": [
        {
          "internalType": "uint256",
          "name": "",
          "type": "uint256"
        }
      ],
      "stateMutability": "view",
      "type": "function"
    },
    {
      "inputs": [
        {
          "internalType": "uint256",
          "name": "_id",
          "type": "uint256"
        }
      ],
      "name": "getDomain",
      "outputs": [
        {
          "components": [
            {
              "internalType": "string",
              "name": "name",
              "type": "string"
            },
            {
              "internalType": "uint256",
              "name": "cost",
              "type": "uint256"
            },
            {
              "internalType": "bool",
              "name": "isOwned",
              "type": "bool"
            }
          ],
          "internalType": "struct WebMart.Domain",
          "name": "",
          "type": "tuple"
        }
      ],
      "stateMutability": "view",
      "type": "function"
    },
    {
      "inputs": [
        {
          "internalType": "address",
          "name": "owner",
          "type": "address"
        },
        {
          "internalType": "address",
          "name": "operator",
          "type": "address"
        }
      ],
      "name": "isApprovedForAll",
      "outputs": [
        {
          "internalType": "bool",
          "name": "",
          "type": "bool"
        }
      ],
      "stateMutability": "view",
      "type": "function"
    },
    {
      "inputs": [
        {
          "internalType": "string",
          "name": "_name",
          "type": "string"
        },
        {
          "internalType": "uint256",
          "name": "_cost",
          "type": "uint256"
        }
      ],
      "name": "listDomain",
      "outputs": [],
      "stateMutability": "nonpayable",
      "type": "function"
    },
    {
      "inputs": [],
      "name": "maxSupply",
      "outputs": [
        {
          "internalType": "uint256",
          "name": "",
          "type": "uint256"
        }
      ],
      "stateMutability": "view",
      "type": "function"
    },
    {
      "inputs": [
        {
          "internalType": "uint256",
          "name": "_id",
          "type": "uint256"
        }
      ],
      "name": "mint",
      "outputs": [],
      "stateMutability": "payable",
      "type": "function"
    },
    {
      "inputs": [],
      "name": "name",
      "outputs": [
        {
          "internalType": "string",
          "name": "",
          "type": "string"
        }
      ],
      "stateMutability": "view",
      "type": "function"
    },
    {
      "inputs": [],
      "name": "owner",
      "outputs": [
        {
          "internalType": "address",
          "name": "",
          "type": "address"
        }
      ],
      "stateMutability": "view",
      "type": "function"
    },
    {
      "inputs": [
        {
          "internalType": "uint256",
          "name": "tokenId",
          "type": "uint256"
        }
      ],
      "name": "ownerOf",
      "outputs": [
        {
          "internalType": "address",
          "name": "",
          "type": "address"
        }
      ],
      "stateMutability": "view",
      "type": "function"
    },
    {
      "inputs": [
        {
          "internalType": "address",
          "name": "from",
          "type": "address"
        },
        {
          "internalType": "address",
          "name": "to",
          "type": "address"
        },
        {
          "internalType": "uint256",
          "name": "tokenId",
          "type": "uint256"
        }
      ],
      "name": "safeTransferFrom",
      "outputs": [],
      "stateMutability": "nonpayable",
      "type": "function"
    },
    {
      "inputs": [
        {
          "internalType": "address",
          "name": "from",
          "type": "address"
        },
        {
          "internalType": "address",
          "name": "to",
          "type": "address"
        },
        {
          "internalType": "uint256",
          "name": "tokenId",
          "type": "uint256"
        },
        {
          "internalType": "bytes",
          "name": "data",
          "type": "bytes"
        }
      ],
      "name": "safeTransferFrom",
      "outputs": [],
      "stateMutability": "nonpayable",
      "type": "function"
    },
    {
      "inputs": [
        {
          "internalType": "address",
          "name": "operator",
          "type": "address"
        },
        {
          "internalType": "bool",
          "name": "approved",
          "type": "bool"
        }
      ],
      "name": "setApprovalForAll",
      "outputs": [],
      "stateMutability": "nonpayable",
      "type": "function"
    },
    {
      "inputs": [
        {
          "internalType": "bytes4",
          "name": "interfaceId",
          "type": "bytes4"
        }
      ],
      "name": "supportsInterface",
      "outputs": [
        {
          "internalType": "bool",
          "name": "",
          "type": "bool"
        }
      ],
      "stateMutability": "view",
      "type": "function"
    },
    {
      "inputs": [],
      "name": "symbol",
      "outputs": [
        {
          "internalType": "string",
          "name": "",
          "type": "string"
        }
      ],
      "stateMutability": "view",
      "type": "function"
    },
    {
      "inputs": [
        {
          "internalType": "uint256",
          "name": "tokenId",
          "type": "uint256"
        }
      ],
      "name": "tokenURI",
      "outputs": [
        {
          "internalType": "string",
          "name": "",
          "type": "string"
        }
      ],
      "stateMutability": "view",
      "type": "function"
    },
    {
      "inputs": [],
      "name": "totalSupply",
      "outputs": [
        {
          "internalType": "uint256",
          "name": "",
          "type": "uint256"
        }
      ],
      "stateMutability": "view",
      "type": "function"
    },
    {
      "inputs": [
        {
          "internalType": "address",
          "name": "from",
          "type": "address"
        },
        {
          "internalType": "address",
          "name": "to",
          "type": "address"
        },
        {
          "internalType": "uint256",
          "name": "tokenId",
          "type": "uint256"
        }
      ],
      "name": "transferFrom",
      "outputs": [],
      "stateMutability": "nonpayable",
      "type": "function"
    },
    {
      "inputs": [],
      "name": "withdraw",
      "outputs": [],
      "stateMutability": "nonpayable",
      "type": "function"
    }
  ],
  "bytecode": "0x60806040523480156200001157600080fd5b506040516200375c3803806200375c83398181016040528101906200003791906200023b565b818181600090816200004a91906200050b565b5080600190816200005c91906200050b565b50505033600860006101000a81548173ffffffffffffffffffffffffffffffffffffffff021916908373ffffffffffffffffffffffffffffffffffffffff1602179055505050620005f2565b6000604051905090565b600080fd5b600080fd5b600080fd5b600080fd5b6000601f19601f8301169050919050565b7f4e487b7100000000000000000000000000000000000000000000000000000000600052604160045260246000fd5b6200011182620000c6565b810181811067ffffffffffffffff82111715620001335762000132620000d7565b5b80604052505050565b600062000148620000a8565b905062000156828262000106565b919050565b600067ffffffffffffffff821115620001795762000178620000d7565b5b6200018482620000c6565b9050602081019050919050565b60005b83811015620001b157808201518184015260208101905062000194565b60008484015250505050565b6000620001d4620001ce846200015b565b6200013c565b905082815260208101848484011115620001f357620001f2620000c1565b5b6200020084828562000191565b509392505050565b600082601f83011262000220576200021f620000bc565b5b815162000232848260208601620001bd565b91505092915050565b60008060408385031215620002555762000254620000b2565b5b600083015167ffffffffffffffff811115620002765762000275620000b7565b5b620002848582860162000208565b925050602083015167ffffffffffffffff811115620002a857620002a7620000b7565b5b620002b68582860162000208565b9150509250929050565b600081519050919050565b7f4e487b7100000000000000000000000000000000000000000000000000000000600052602260045260246000fd5b600060028204905060018216806200031357607f821691505b602082108103620003295762000328620002cb565b5b50919050565b60008190508160005260206000209050919050565b60006020601f8301049050919050565b600082821b905092915050565b600060088302620003937fffffffffffffffffffffffffffffffffffffffffffffffffffffffffffffffff8262000354565b6200039f868362000354565b95508019841693508086168417925050509392505050565b6000819050919050565b6000819050919050565b6000620003ec620003e6620003e084620003b7565b620003c1565b620003b7565b9050919050565b6000819050919050565b6200040883620003cb565b620004206200041782620003f3565b84845462000361565b825550505050565b600090565b6200043762000428565b62000444818484620003fd565b505050565b5b818110156200046c57620004606000826200042d565b6001810190506200044a565b5050565b601f821115620004bb5762000485816200032f565b620004908462000344565b81016020851015620004a0578190505b620004b8620004af8562000344565b83018262000449565b50505b505050565b600082821c905092915050565b6000620004e060001984600802620004c0565b1980831691505092915050565b6000620004fb8383620004cd565b9150826002028217905092915050565b6200051682620002c0565b67ffffffffffffffff811115620005325762000531620000d7565b5b6200053e8254620002fa565b6200054b82828562000470565b600060209050601f8311600181146200058357600084156200056e578287015190505b6200057a8582620004ed565b865550620005ea565b601f19841662000593866200032f565b60005b82811015620005bd5784890151825560018201915060208501945060208101905062000596565b86831015620005dd5784890151620005d9601f891682620004cd565b8355505b6001600288020188555050505b505050505050565b61315a80620006026000396000f3fe60806040526004361061012a5760003560e01c80635def3987116100ab578063a0712d681161006f578063a0712d68146103f2578063a22cb4651461040e578063b88d4fde14610437578063c87b56dd14610460578063d5abeb011461049d578063e985e9c5146104c85761012a565b80635def3987146102f95780636352211e1461032257806370a082311461035f5780638da5cb5b1461039c57806395d89b41146103c75761012a565b806318160ddd116100f257806318160ddd146102285780631a7a98e21461025357806323b872dd146102905780633ccfd60b146102b957806342842e0e146102d05761012a565b806301ffc9a71461012f57806306fdde031461016c578063081812fc14610197578063095ea7b3146101d457806312065fe0146101fd575b600080fd5b34801561013b57600080fd5b5061015660048036038101906101519190611edc565b610505565b6040516101639190611f24565b60405180910390f35b34801561017857600080fd5b506101816105e7565b60405161018e9190611fcf565b60405180910390f35b3480156101a357600080fd5b506101be60048036038101906101b99190612027565b610679565b6040516101cb9190612095565b60405180910390f35b3480156101e057600080fd5b506101fb60048036038101906101f691906120dc565b6106bf565b005b34801561020957600080fd5b506102126107d6565b60405161021f919061212b565b60405180910390f35b34801561023457600080fd5b5061023d6107de565b60405161024a919061212b565b60405180910390f35b34801561025f57600080fd5b5061027a60048036038101906102759190612027565b6107e4565b60405161028791906121fe565b60405180910390f35b34801561029c57600080fd5b506102b760048036038101906102b29190612220565b6108c8565b005b3480156102c557600080fd5b506102ce610928565b005b3480156102dc57600080fd5b506102f760048036038101906102f29190612220565b610a1d565b005b34801561030557600080fd5b50610320600480360381019061031b91906123a8565b610a3d565b005b34801561032e57600080fd5b5061034960048036038101906103449190612027565b610b29565b6040516103569190612095565b60405180910390f35b34801561036b57600080fd5b5061038660048036038101906103819190612404565b610baf565b604051610393919061212b565b60405180910390f35b3480156103a857600080fd5b506103b1610c66565b6040516103be9190612095565b60405180910390f35b3480156103d357600080fd5b506103dc610c8c565b6040516103e99190611fcf565b60405180910390f35b61040c60048036038101906104079190612027565b610d1e565b005b34801561041a57600080fd5b506104356004803603810190610430919061245d565b610de5565b005b34801561044357600080fd5b5061045e6004803603810190610459919061253e565b610dfb565b005b34801561046c57600080fd5b5061048760048036038101906104829190612027565b610e5d565b6040516104949190611fcf565b60405180910390f35b3480156104a957600080fd5b506104b2610ec5565b6040516104bf919061212b565b60405180910390f35b3480156104d457600080fd5b506104ef60048036038101906104ea91906125c1565b610ecb565b6040516104fc9190611f24565b60405180910390f35b60007f80ac58cd000000000000000000000000000000000000000000000000000000007bffffffffffffffffffffffffffffffffffffffffffffffffffffffff1916827bffffffffffffffffffffffffffffffffffffffffffffffffffffffff191614806105d057507f5b5e139f000000000000000000000000000000000000000000000000000000007bffffffffffffffffffffffffffffffffffffffffffffffffffffffff1916827bffffffffffffffffffffffffffffffffffffffffffffffffffffffff1916145b806105e057506105df82610f5f565b5b9050919050565b6060600080546105f690612630565b80601f016020809104026020016040519081016040528092919081815260200182805461062290612630565b801561066f5780601f106106445761010080835404028352916020019161066f565b820191906000526020600020905b81548152906001019060200180831161065257829003601f168201915b5050505050905090565b600061068482610fc9565b6004600083815260200190815260200160002060009054906101000a900473ffffffffffffffffffffffffffffffffffffffff169050919050565b60006106ca82610b29565b90508073ffffffffffffffffffffffffffffffffffffffff168373ffffffffffffffffffffffffffffffffffffffff160361073a576040517f08c379a0000000000000000000000000000000000000000000000000000000008152600401610731906126d3565b60405180910390fd5b8073ffffffffffffffffffffffffffffffffffffffff16610759611014565b73ffffffffffffffffffffffffffffffffffffffff161480610788575061078781610782611014565b610ecb565b5b6107c7576040517f08c379a00000000000000000000000000000000000000000000000000000000081526004016107be90612765565b60405180910390fd5b6107d1838361101c565b505050565b600047905090565b60075481565b6107ec611e4d565b6009600083815260200190815260200160002060405180606001604052908160008201805461081a90612630565b80601f016020809104026020016040519081016040528092919081815260200182805461084690612630565b80156108935780601f1061086857610100808354040283529160200191610893565b820191906000526020600020905b81548152906001019060200180831161087657829003601f168201915b50505050508152602001600182015481526020016002820160009054906101000a900460ff1615151515815250509050919050565b6108d96108d3611014565b826110d5565b610918576040517f08c379a000000000000000000000000000000000000000000000000000000000815260040161090f906127f7565b60405180910390fd5b61092383838361116a565b505050565b600860009054906101000a900473ffffffffffffffffffffffffffffffffffffffff1673ffffffffffffffffffffffffffffffffffffffff163373ffffffffffffffffffffffffffffffffffffffff161461098257600080fd5b6000600860009054906101000a900473ffffffffffffffffffffffffffffffffffffffff1673ffffffffffffffffffffffffffffffffffffffff16476040516109ca90612848565b60006040518083038185875af1925050503d8060008114610a07576040519150601f19603f3d011682016040523d82523d6000602084013e610a0c565b606091505b5050905080610a1a57600080fd5b50565b610a3883838360405180602001604052806000815250610dfb565b505050565b600860009054906101000a900473ffffffffffffffffffffffffffffffffffffffff1673ffffffffffffffffffffffffffffffffffffffff163373ffffffffffffffffffffffffffffffffffffffff1614610a9757600080fd5b60066000815480929190610aaa9061288c565b91905055506040518060600160405280838152602001828152602001600015158152506009600060065481526020019081526020016000206000820151816000019081610af79190612a80565b506020820151816001015560408201518160020160006101000a81548160ff0219169083151502179055509050505050565b600080610b3583611463565b9050600073ffffffffffffffffffffffffffffffffffffffff168173ffffffffffffffffffffffffffffffffffffffff1603610ba6576040517f08c379a0000000000000000000000000000000000000000000000000000000008152600401610b9d90612b9e565b60405180910390fd5b80915050919050565b60008073ffffffffffffffffffffffffffffffffffffffff168273ffffffffffffffffffffffffffffffffffffffff1603610c1f576040517f08c379a0000000000000000000000000000000000000000000000000000000008152600401610c1690612c30565b60405180910390fd5b600360008373ffffffffffffffffffffffffffffffffffffffff1673ffffffffffffffffffffffffffffffffffffffff168152602001908152602001600020549050919050565b600860009054906101000a900473ffffffffffffffffffffffffffffffffffffffff1681565b606060018054610c9b90612630565b80601f0160208091040260200160405190810160405280929190818152602001828054610cc790612630565b8015610d145780601f10610ce957610100808354040283529160200191610d14565b820191906000526020600020905b815481529060010190602001808311610cf757829003601f168201915b5050505050905090565b60008103610d2b57600080fd5b600654811115610d3a57600080fd5b600015156009600083815260200190815260200160002060020160009054906101000a900460ff16151514610d6e57600080fd5b6009600082815260200190815260200160002060010154341015610d9157600080fd5b60016009600083815260200190815260200160002060020160006101000a81548160ff02191690831515021790555060076000815480929190610dd39061288c565b9190505550610de233826114a0565b50565b610df7610df0611014565b83836114be565b5050565b610e0c610e06611014565b836110d5565b610e4b576040517f08c379a0000000000000000000000000000000000000000000000000000000008152600401610e42906127f7565b60405180910390fd5b610e578484848461162a565b50505050565b6060610e6882610fc9565b6000610e72611686565b90506000815111610e925760405180602001604052806000815250610ebd565b80610e9c8461169d565b604051602001610ead929190612c8c565b6040516020818303038152906040525b915050919050565b60065481565b6000600560008473ffffffffffffffffffffffffffffffffffffffff1673ffffffffffffffffffffffffffffffffffffffff16815260200190815260200160002060008373ffffffffffffffffffffffffffffffffffffffff1673ffffffffffffffffffffffffffffffffffffffff16815260200190815260200160002060009054906101000a900460ff16905092915050565b60007f01ffc9a7000000000000000000000000000000000000000000000000000000007bffffffffffffffffffffffffffffffffffffffffffffffffffffffff1916827bffffffffffffffffffffffffffffffffffffffffffffffffffffffff1916149050919050565b610fd28161176b565b611011576040517f08c379a000000000000000000000000000000000000000000000000000000000815260040161100890612b9e565b60405180910390fd5b50565b600033905090565b816004600083815260200190815260200160002060006101000a81548173ffffffffffffffffffffffffffffffffffffffff021916908373ffffffffffffffffffffffffffffffffffffffff160217905550808273ffffffffffffffffffffffffffffffffffffffff1661108f83610b29565b73ffffffffffffffffffffffffffffffffffffffff167f8c5be1e5ebec7d5bd14f71427d1e84f3dd0314c0f7b2291e5b200ac8c7c3b92560405160405180910390a45050565b6000806110e183610b29565b90508073ffffffffffffffffffffffffffffffffffffffff168473ffffffffffffffffffffffffffffffffffffffff16148061112357506111228185610ecb565b5b8061116157508373ffffffffffffffffffffffffffffffffffffffff1661114984610679565b73ffffffffffffffffffffffffffffffffffffffff16145b91505092915050565b8273ffffffffffffffffffffffffffffffffffffffff1661118a82610b29565b73ffffffffffffffffffffffffffffffffffffffff16146111e0576040517f08c379a00000000000000000000000000000000000000000000000000000000081526004016111d790612d22565b60405180910390fd5b600073ffffffffffffffffffffffffffffffffffffffff168273ffffffffffffffffffffffffffffffffffffffff160361124f576040517f08c379a000000000000000000000000000000000000000000000000000000000815260040161124690612db4565b60405180910390fd5b61125c83838360016117ac565b8273ffffffffffffffffffffffffffffffffffffffff1661127c82610b29565b73ffffffffffffffffffffffffffffffffffffffff16146112d2576040517f08c379a00000000000000000000000000000000000000000000000000000000081526004016112c990612d22565b60405180910390fd5b6004600082815260200190815260200160002060006101000a81549073ffffffffffffffffffffffffffffffffffffffff02191690556001600360008573ffffffffffffffffffffffffffffffffffffffff1673ffffffffffffffffffffffffffffffffffffffff168152602001908152602001600020600082825403925050819055506001600360008473ffffffffffffffffffffffffffffffffffffffff1673ffffffffffffffffffffffffffffffffffffffff16815260200190815260200160002060008282540192505081905550816002600083815260200190815260200160002060006101000a81548173ffffffffffffffffffffffffffffffffffffffff021916908373ffffffffffffffffffffffffffffffffffffffff160217905550808273ffffffffffffffffffffffffffffffffffffffff168473ffffffffffffffffffffffffffffffffffffffff167fddf252ad1be2c89b69c2b068fc378daa952ba7f163c4a11628f55a4df523b3ef60405160405180910390a461145e83838360016118d2565b505050565b60006002600083815260200190815260200160002060009054906101000a900473ffffffffffffffffffffffffffffffffffffffff169050919050565b6114ba8282604051806020016040528060008152506118d8565b5050565b8173ffffffffffffffffffffffffffffffffffffffff168373ffffffffffffffffffffffffffffffffffffffff160361152c576040517f08c379a000000000000000000000000000000000000000000000000000000000815260040161152390612e20565b60405180910390fd5b80600560008573ffffffffffffffffffffffffffffffffffffffff1673ffffffffffffffffffffffffffffffffffffffff16815260200190815260200160002060008473ffffffffffffffffffffffffffffffffffffffff1673ffffffffffffffffffffffffffffffffffffffff16815260200190815260200160002060006101000a81548160ff0219169083151502179055508173ffffffffffffffffffffffffffffffffffffffff168373ffffffffffffffffffffffffffffffffffffffff167f17307eab39ab6107e8899845ad3d59bd9653f200f220920489ca2b5937696c318360405161161d9190611f24565b60405180910390a3505050565b61163584848461116a565b61164184848484611933565b611680576040517f08c379a000000000000000000000000000000000000000000000000000000000815260040161167790612eb2565b60405180910390fd5b50505050565b606060405180602001604052806000815250905090565b6060600060016116ac84611aba565b01905060008167ffffffffffffffff8111156116cb576116ca61227d565b5b6040519080825280601f01601f1916602001820160405280156116fd5781602001600182028036833780820191505090505b509050600082602001820190505b600115611760578080600190039150507f3031323334353637383961626364656600000000000000000000000000000000600a86061a8153600a858161175457611753612ed2565b5b0494506000850361170b575b819350505050919050565b60008073ffffffffffffffffffffffffffffffffffffffff1661178d83611463565b73ffffffffffffffffffffffffffffffffffffffff1614159050919050565b60018111156118cc57600073ffffffffffffffffffffffffffffffffffffffff168473ffffffffffffffffffffffffffffffffffffffff16146118405780600360008673ffffffffffffffffffffffffffffffffffffffff1673ffffffffffffffffffffffffffffffffffffffff16815260200190815260200160002060008282546118389190612f01565b925050819055505b600073ffffffffffffffffffffffffffffffffffffffff168373ffffffffffffffffffffffffffffffffffffffff16146118cb5780600360008573ffffffffffffffffffffffffffffffffffffffff1673ffffffffffffffffffffffffffffffffffffffff16815260200190815260200160002060008282546118c39190612f35565b925050819055505b5b50505050565b50505050565b6118e28383611c0d565b6118ef6000848484611933565b61192e576040517f08c379a000000000000000000000000000000000000000000000000000000000815260040161192590612eb2565b60405180910390fd5b505050565b60006119548473ffffffffffffffffffffffffffffffffffffffff16611e2a565b15611aad578373ffffffffffffffffffffffffffffffffffffffff1663150b7a0261197d611014565b8786866040518563ffffffff1660e01b815260040161199f9493929190612fbe565b6020604051808303816000875af19250505080156119db57506040513d601f19601f820116820180604052508101906119d8919061301f565b60015b611a5d573d8060008114611a0b576040519150601f19603f3d011682016040523d82523d6000602084013e611a10565b606091505b506000815103611a55576040517f08c379a0000000000000000000000000000000000000000000000000000000008152600401611a4c90612eb2565b60405180910390fd5b805181602001fd5b63150b7a0260e01b7bffffffffffffffffffffffffffffffffffffffffffffffffffffffff1916817bffffffffffffffffffffffffffffffffffffffffffffffffffffffff191614915050611ab2565b600190505b949350505050565b600080600090507a184f03e93ff9f4daa797ed6e38ed64bf6a1f0100000000000000008310611b18577a184f03e93ff9f4daa797ed6e38ed64bf6a1f0100000000000000008381611b0e57611b0d612ed2565b5b0492506040810190505b6d04ee2d6d415b85acef81000000008310611b55576d04ee2d6d415b85acef81000000008381611b4b57611b4a612ed2565b5b0492506020810190505b662386f26fc100008310611b8457662386f26fc100008381611b7a57611b79612ed2565b5b0492506010810190505b6305f5e1008310611bad576305f5e1008381611ba357611ba2612ed2565b5b0492506008810190505b6127108310611bd2576127108381611bc857611bc7612ed2565b5b0492506004810190505b60648310611bf55760648381611beb57611bea612ed2565b5b0492506002810190505b600a8310611c04576001810190505b80915050919050565b600073ffffffffffffffffffffffffffffffffffffffff168273ffffffffffffffffffffffffffffffffffffffff1603611c7c576040517f08c379a0000000000000000000000000000000000000000000000000000000008152600401611c7390613098565b60405180910390fd5b611c858161176b565b15611cc5576040517f08c379a0000000000000000000000000000000000000000000000000000000008152600401611cbc90613104565b60405180910390fd5b611cd36000838360016117ac565b611cdc8161176b565b15611d1c576040517f08c379a0000000000000000000000000000000000000000000000000000000008152600401611d1390613104565b60405180910390fd5b6001600360008473ffffffffffffffffffffffffffffffffffffffff1673ffffffffffffffffffffffffffffffffffffffff16815260200190815260200160002060008282540192505081905550816002600083815260200190815260200160002060006101000a81548173ffffffffffffffffffffffffffffffffffffffff021916908373ffffffffffffffffffffffffffffffffffffffff160217905550808273ffffffffffffffffffffffffffffffffffffffff16600073ffffffffffffffffffffffffffffffffffffffff167fddf252ad1be2c89b69c2b068fc378daa952ba7f163c4a11628f55a4df523b3ef60405160405180910390a4611e266000838360016118d2565b5050565b6000808273ffffffffffffffffffffffffffffffffffffffff163b119050919050565b604051806060016040528060608152602001600081526020016000151581525090565b6000604051905090565b600080fd5b600080fd5b60007fffffffff0000000000000000000000000000000000000000000000000000000082169050919050565b611eb981611e84565b8114611ec457600080fd5b50565b600081359050611ed681611eb0565b92915050565b600060208284031215611ef257611ef1611e7a565b5b6000611f0084828501611ec7565b91505092915050565b60008115159050919050565b611f1e81611f09565b82525050565b6000602082019050611f396000830184611f15565b92915050565b600081519050919050565b600082825260208201905092915050565b60005b83811015611f79578082015181840152602081019050611f5e565b60008484015250505050565b6000601f19601f8301169050919050565b6000611fa182611f3f565b611fab8185611f4a565b9350611fbb818560208601611f5b565b611fc481611f85565b840191505092915050565b60006020820190508181036000830152611fe98184611f96565b905092915050565b6000819050919050565b61200481611ff1565b811461200f57600080fd5b50565b60008135905061202181611ffb565b92915050565b60006020828403121561203d5761203c611e7a565b5b600061204b84828501612012565b91505092915050565b600073ffffffffffffffffffffffffffffffffffffffff82169050919050565b600061207f82612054565b9050919050565b61208f81612074565b82525050565b60006020820190506120aa6000830184612086565b92915050565b6120b981612074565b81146120c457600080fd5b50565b6000813590506120d6816120b0565b92915050565b600080604083850312156120f3576120f2611e7a565b5b6000612101858286016120c7565b925050602061211285828601612012565b9150509250929050565b61212581611ff1565b82525050565b6000602082019050612140600083018461211c565b92915050565b600082825260208201905092915050565b600061216282611f3f565b61216c8185612146565b935061217c818560208601611f5b565b61218581611f85565b840191505092915050565b61219981611ff1565b82525050565b6121a881611f09565b82525050565b600060608301600083015184820360008601526121cb8282612157565b91505060208301516121e06020860182612190565b5060408301516121f3604086018261219f565b508091505092915050565b6000602082019050818103600083015261221881846121ae565b905092915050565b60008060006060848603121561223957612238611e7a565b5b6000612247868287016120c7565b9350506020612258868287016120c7565b925050604061226986828701612012565b9150509250925092565b600080fd5b600080fd5b7f4e487b7100000000000000000000000000000000000000000000000000000000600052604160045260246000fd5b6122b582611f85565b810181811067ffffffffffffffff821117156122d4576122d361227d565b5b80604052505050565b60006122e7611e70565b90506122f382826122ac565b919050565b600067ffffffffffffffff8211156123135761231261227d565b5b61231c82611f85565b9050602081019050919050565b82818337600083830152505050565b600061234b612346846122f8565b6122dd565b90508281526020810184848401111561236757612366612278565b5b612372848285612329565b509392505050565b600082601f83011261238f5761238e612273565b5b813561239f848260208601612338565b91505092915050565b600080604083850312156123bf576123be611e7a565b5b600083013567ffffffffffffffff8111156123dd576123dc611e7f565b5b6123e98582860161237a565b92505060206123fa85828601612012565b9150509250929050565b60006020828403121561241a57612419611e7a565b5b6000612428848285016120c7565b91505092915050565b61243a81611f09565b811461244557600080fd5b50565b60008135905061245781612431565b92915050565b6000806040838503121561247457612473611e7a565b5b6000612482858286016120c7565b925050602061249385828601612448565b9150509250929050565b600067ffffffffffffffff8211156124b8576124b761227d565b5b6124c182611f85565b9050602081019050919050565b60006124e16124dc8461249d565b6122dd565b9050828152602081018484840111156124fd576124fc612278565b5b612508848285612329565b509392505050565b600082601f83011261252557612524612273565b5b81356125358482602086016124ce565b91505092915050565b6000806000806080858703121561255857612557611e7a565b5b6000612566878288016120c7565b9450506020612577878288016120c7565b935050604061258887828801612012565b925050606085013567ffffffffffffffff8111156125a9576125a8611e7f565b5b6125b587828801612510565b91505092959194509250565b600080604083850312156125d8576125d7611e7a565b5b60006125e6858286016120c7565b92505060206125f7858286016120c7565b9150509250929050565b7f4e487b7100000000000000000000000000000000000000000000000000000000600052602260045260246000fd5b6000600282049050600182168061264857607f821691505b60208210810361265b5761265a612601565b5b50919050565b7f4552433732313a20617070726f76616c20746f2063757272656e74206f776e6560008201527f7200000000000000000000000000000000000000000000000000000000000000602082015250565b60006126bd602183611f4a565b91506126c882612661565b604082019050919050565b600060208201905081810360008301526126ec816126b0565b9050919050565b7f4552433732313a20617070726f76652063616c6c6572206973206e6f7420746f60008201527f6b656e206f776e6572206f7220617070726f76656420666f7220616c6c000000602082015250565b600061274f603d83611f4a565b915061275a826126f3565b604082019050919050565b6000602082019050818103600083015261277e81612742565b9050919050565b7f4552433732313a2063616c6c6572206973206e6f7420746f6b656e206f776e6560008201527f72206f7220617070726f76656400000000000000000000000000000000000000602082015250565b60006127e1602d83611f4a565b91506127ec82612785565b604082019050919050565b60006020820190508181036000830152612810816127d4565b9050919050565b600081905092915050565b50565b6000612832600083612817565b915061283d82612822565b600082019050919050565b600061285382612825565b9150819050919050565b7f4e487b7100000000000000000000000000000000000000000000000000000000600052601160045260246000fd5b600061289782611ff1565b91507fffffffffffffffffffffffffffffffffffffffffffffffffffffffffffffffff82036128c9576128c861285d565b5b600182019050919050565b60008190508160005260206000209050919050565b60006020601f8301049050919050565b600082821b905092915050565b6000600883026129367fffffffffffffffffffffffffffffffffffffffffffffffffffffffffffffffff826128f9565b61294086836128f9565b95508019841693508086168417925050509392505050565b6000819050919050565b600061297d61297861297384611ff1565b612958565b611ff1565b9050919050565b6000819050919050565b61299783612962565b6129ab6129a382612984565b848454612906565b825550505050565b600090565b6129c06129b3565b6129cb81848461298e565b505050565b5b818110156129ef576129e46000826129b8565b6001810190506129d1565b5050565b601f821115612a3457612a05816128d4565b612a0e846128e9565b81016020851015612a1d578190505b612a31612a29856128e9565b8301826129d0565b50505b505050565b600082821c905092915050565b6000612a5760001984600802612a39565b1980831691505092915050565b6000612a708383612a46565b9150826002028217905092915050565b612a8982611f3f565b67ffffffffffffffff811115612aa257612aa161227d565b5b612aac8254612630565b612ab78282856129f3565b600060209050601f831160018114612aea5760008415612ad8578287015190505b612ae28582612a64565b865550612b4a565b601f198416612af8866128d4565b60005b82811015612b2057848901518255600182019150602085019450602081019050612afb565b86831015612b3d5784890151612b39601f891682612a46565b8355505b6001600288020188555050505b505050505050565b7f4552433732313a20696e76616c696420746f6b656e2049440000000000000000600082015250565b6000612b88601883611f4a565b9150612b9382612b52565b602082019050919050565b60006020820190508181036000830152612bb781612b7b565b9050919050565b7f4552433732313a2061646472657373207a65726f206973206e6f74206120766160008201527f6c6964206f776e65720000000000000000000000000000000000000000000000602082015250565b6000612c1a602983611f4a565b9150612c2582612bbe565b604082019050919050565b60006020820190508181036000830152612c4981612c0d565b9050919050565b600081905092915050565b6000612c6682611f3f565b612c708185612c50565b9350612c80818560208601611f5b565b80840191505092915050565b6000612c988285612c5b565b9150612ca48284612c5b565b91508190509392505050565b7f4552433732313a207472616e736665722066726f6d20696e636f72726563742060008201527f6f776e6572000000000000000000000000000000000000000000000000000000602082015250565b6000612d0c602583611f4a565b9150612d1782612cb0565b604082019050919050565b60006020820190508181036000830152612d3b81612cff565b9050919050565b7f4552433732313a207472616e7366657220746f20746865207a65726f2061646460008201527f7265737300000000000000000000000000000000000000000000000000000000602082015250565b6000612d9e602483611f4a565b9150612da982612d42565b604082019050919050565b60006020820190508181036000830152612dcd81612d91565b9050919050565b7f4552433732313a20617070726f766520746f2063616c6c657200000000000000600082015250565b6000612e0a601983611f4a565b9150612e1582612dd4565b602082019050919050565b60006020820190508181036000830152612e3981612dfd565b9050919050565b7f4552433732313a207472616e7366657220746f206e6f6e20455243373231526560008201527f63656976657220696d706c656d656e7465720000000000000000000000000000602082015250565b6000612e9c603283611f4a565b9150612ea782612e40565b604082019050919050565b60006020820190508181036000830152612ecb81612e8f565b9050919050565b7f4e487b7100000000000000000000000000000000000000000000000000000000600052601260045260246000fd5b6000612f0c82611ff1565b9150612f1783611ff1565b9250828203905081811115612f2f57612f2e61285d565b5b92915050565b6000612f4082611ff1565b9150612f4b83611ff1565b9250828201905080821115612f6357612f6261285d565b5b92915050565b600081519050919050565b600082825260208201905092915050565b6000612f9082612f69565b612f9a8185612f74565b9350612faa818560208601611f5b565b612fb381611f85565b840191505092915050565b6000608082019050612fd36000830187612086565b612fe06020830186612086565b612fed604083018561211c565b8181036060830152612fff8184612f85565b905095945050505050565b60008151905061301981611eb0565b92915050565b60006020828403121561303557613034611e7a565b5b60006130438482850161300a565b91505092915050565b7f4552433732313a206d696e7420746f20746865207a65726f2061646472657373600082015250565b6000613082602083611f4a565b915061308d8261304c565b602082019050919050565b600060208201905081810360008301526130b181613075565b9050919050565b7f4552433732313a20746f6b656e20616c7265616479206d696e74656400000000600082015250565b60006130ee601c83611f4a565b91506130f9826130b8565b602082019050919050565b6000602082019050818103600083015261311d816130e1565b905091905056fea26469706673582212203b0bcb490d52b090311d321b3e635513bf825107f284d7f3fca7bcda978325e764736f6c63430008110033",
  "linkReferences": {},
  "deployedLinkReferences": {}
}